:100000000C9463000C94C2000C94EF000C948B00D1
:100010000C948B000C948B000C948B000C94230498
:100020000C948B000C948B000C948B000C948B0024
:100030000C948B000C948B000C948B000C948B0014
:100040000C941C010C948B000C9476020C948B0085
:100050000C948B000C948B000C948B000C948B00F4
:100060000C948B000C948B000000000024002700EF
:100070002A0000000000250028002B0000000000DE
:1000800023002600290004040404040404040202DA
:100090000202020203030303030301020408102007
:1000A0004080010204081020010204081020000012
:1000B0000007000201000003040600000000000029
:1000C00000000200720311241FBECFEFD8E0DEBF94
:1000D000CDBF11E0A0E0B1E0E6E9F9E002C0059093
:1000E0000D92AE31B107D9F711E0AEE1B1E001C038
:1000F0001D92A93CB107E1F710E0C6ECD0E004C0C6
:100100002297FE010E94C504C43CD107C9F70E9492
:100110007F040C948D000C940000F8940C94C90496
:100120008DE061E00E941E0264E670E080E090E0F5
:100130000E9464018DE060E00E941E028FEA91E05F
:1001400060E071E00E94E30368EE73E080E090E01D
:100150000E94640108950F931F938DE061E00E9457
:10016000F8010FEA11E0C80140E05BE460E070E0F4
:100170000E94A702C80162E071E00E94E3031F91A0
:100180000F9108951F920F920FB60F9211242F9383
:100190003F934F935F936F937F938F939F93AF930F
:1001A000BF93EF93FF9380911E0190911F01892BC4
:1001B00029F0E0911E01F0911F010995FF91EF9147
:1001C000BF91AF919F918F917F916F915F914F916F
:1001D0003F912F910F900FBE0F901F9018951F9277
:1001E0000F920FB60F9211242F933F934F935F936B
:1001F0006F937F938F939F93AF93BF93EF93FF93EF
:100200008091200190912101892B29F0E09120011A
:10021000F09121010995FF91EF91BF91AF919F91CD
:100220008F917F916F915F914F913F912F910F909F
:100230000FBE0F901F9018951F920F920FB60F923E
:1002400011242F933F938F939F93AF93BF938091EC
:10025000260190912701A0912801B09129013091A8
:100260002A010196A11DB11D232F2D5F2D3720F0EE
:100270002D570196A11DB11D20932A0180932601BF
:1002800090932701A0932801B09329018091220126
:1002900090912301A0912401B09125010196A11D07
:1002A000B11D8093220190932301A0932401B09368
:1002B0002501BF91AF919F918F913F912F910F9009
:1002C0000FBE0F901F9018959B01AC017FB7F8945B
:1002D0008091220190912301A0912401B0912501E8
:1002E00066B5A89B05C06F3F19F00196A11DB11D11
:1002F0007FBFBA2FA92F982F8827860F911DA11D88
:10030000B11D62E0880F991FAA1FBB1F6A95D1F724
:10031000BC012DC0FFB7F894809122019091230178
:10032000A0912401B0912501E6B5A89B05C0EF3F3F
:1003300019F00196A11DB11DFFBFBA2FA92F982F4B
:1003400088278E0F911DA11DB11DE2E0880F991F16
:10035000AA1FBB1FEA95D1F7861B970B885E9340B7
:10036000C8F2215030404040504068517C4F211528
:1003700031054105510571F60895789484B5826080
:1003800084BD84B5816084BD85B5826085BD85B539
:10039000816085BDEEE6F0E0808181608083E1E8E8
:1003A000F0E0108280818260808380818160808320
:1003B000E0E8F0E0808181608083E1EBF0E0808123
:1003C00084608083E0EBF0E0808181608083EAE7F5
:1003D000F0E080818460808380818260808380817E
:1003E000816080838081806880831092C10008953D
:1003F000482F50E0CA0186569F4FFC0124914A576E
:100400005F4FFA0184918823C1F0E82FF0E0EE0FEE
:10041000FF1FE859FF4FA591B491662341F49FB7A0
:10042000F8948C91209582238C939FBF08959FB759
:10043000F8948C91822B8C939FBF0895482F50E0A5
:10044000CA0182559F4FFC012491CA0186569F4FD5
:10045000FC0134914A575F4FFA019491992309F4B2
:1004600044C0222351F1233071F0243028F421308C
:10047000A1F0223011F514C02630B1F02730C1F0C0
:100480002430D9F404C0809180008F7703C080911C
:1004900080008F7D8093800010C084B58F7702C06C
:1004A00084B58F7D84BD09C08091B0008F7703C073
:1004B0008091B0008F7D8093B000E92FF0E0EE0FC7
:1004C000FF1FEE58FF4FA591B491662341F49FB7EB
:1004D000F8948C91309583238C939FBF08959FB798
:1004E000F8948C91832B8C939FBF08951F920F9249
:1004F0000FB60F9211242F933F934F938F939F9397
:10050000EF93FF934091C600E091AB01F091AC01F5
:1005100031969F012F77307031978091AD01909186
:10052000AE012817390739F0E55DFE4F408330935F
:10053000AC012093AB01FF91EF919F918F914F916F
:100540003F912F910F900FBE0F901F901895CF9352
:10055000DF93EC019A01AB01E885F985203081EE4B
:10056000380780E0480780E0580709F449C081E077
:1005700090E00A8802C0880F991F0A94E2F78083EE
:1005800060E079E08DE390E00E94A80421503040C3
:1005900040405040CA01B90122E030E040E050E064
:1005A0000E94A804EC81FD813083EE81FF812083CD
:1005B000EA85FB85208141E050E0CA010E8402C03B
:1005C000880F991F0A94E2F7282B2083EA85FB8580
:1005D0002081CA010F8402C0880F991F0A94E2F794
:1005E000282B2083EA85FB858081088802C0440F80
:1005F000551F0A94E2F7842B8083DF91CF910895F1
:10060000108220E130E0CECFDC011296ED91FC911A
:100610001397E058FF4F2191319180819181281BE0
:10062000390B2F773070C9010895DC011296ED91D6
:10063000FC911397EE57FF4F208131819291829167
:10064000E058F0408217930719F42FEF3FEF05C0F1
:10065000E20FF31F8081282F30E0C9010895DC01EB
:100660001296ED91FC911397DF01AE57BF4F2D917C
:100670003C911197E058FF4F80819181E058F04004
:100680008217930719F42FEF3FEF0BC0E20FF31F10
:1006900080812F5F3F4F2F7730702D933C93282F11
:1006A00030E0C9010895DC011296ED91FC91139799
:1006B000EE57FF4F80819181929382930895FC01C0
:1006C000A085B18521898C9190E0022E02C095957C
:1006D00087950A94E2F780FFF6CF0484F585E02D34
:1006E000608308958FE091E09093B0018093AF0113
:1006F0008BE291E09093B2018093B10185EC90E0A0
:100700009093B4018093B30184EC90E09093B60190
:100710008093B50180EC90E09093B8018093B7018D
:1007200081EC90E09093BA018093B90186EC90E05F
:100730009093BC018093BB0184E08093BD0183E072
:100740008093BE0187E08093BF0185E08093C00164
:1007500081E08093C10108950F931F93CF93DF939E
:100760008C01EB0109C02196D801ED91FC9101901B
:10077000F081E02DC801099568816623A1F7DF911A
:10078000CF911F910F910895EF92FF920F931F93B6
:10079000CF93DF938C017B01EA010CC0D7016D91EF
:1007A0007D01D801ED91FC910190F081E02DC8010F
:1007B00009952197209791F7DF91CF911F910F9184
:1007C000FF90EF900895DC01ED91FC910280F381A0
:1007D000E02D09950895813041F0813018F0823084
:1007E000D1F409C010926E00089580916F008D7F42
:1007F00080936F000895809170008D7F80937000CA
:1008000081E08093B0008091B100887F8460809304
:10081000B1001092B30008951F93182F80910A0120
:10082000811711F09FEF06C0E2ECF0E094918FEF9A
:1008300080930A01892F0E94EB03812F60E00E94C0
:100840001E021F9108951F920F920FB60F9211244E
:100850002F933F934F935F936F937F938F939F93C8
:10086000AF93BF93EF93FF938091C2019091C30127
:10087000A091C401B091C5010097A105B10551F146
:10088000E091C601F091C70180819091C80189274C
:1008900080838091C2019091C301A091C401B09165
:1008A000C501181619061A061B06C4F48091C20168
:1008B0009091C301A091C401B091C5010197A10914
:1008C000B1098093C2019093C301A093C401B09376
:1008D000C50104C080910A010E940C04FF91EF91B0
:1008E000BF91AF919F918F917F916F915F914F9148
:1008F0003F912F910F900FBE0F901F9018950E945F
:10090000BD010E94AB000E949000FDCFA1E21A2E13
:10091000AA1BBB1BFD010DC0AA1FBB1FEE1FFF1FA3
:10092000A217B307E407F50720F0A21BB30BE40BF3
:10093000F50B661F771F881F991F1A9469F760953A
:100940007095809590959B01AC01BD01CF010895F4
:1009500097FB092E05260ED057FD04D0D7DF0AD00D
:10096000001C38F450954095309521953F4F4F4FDE
:100970005F4F0895F6F790958095709561957F4F3C
:100980008F4F9F4F0895EE0FFF1F0590F491E02DBC
:060990000994F894FFCF6A
:100996002E000A0A0A2A2A2A0A00FF000000005F1F
:0E09A60003AC03C40304032F03150353030023
:00000001FF
